{
  "contractName": "TodoApp",
  "abi": [
    {
      "inputs": [],
      "payable": false,
      "stateMutability": "nonpayable",
      "type": "constructor"
    },
    {
      "anonymous": false,
      "inputs": [
        {
          "indexed": false,
          "name": "owner",
          "type": "address"
        },
        {
          "indexed": false,
          "name": "task",
          "type": "bytes32"
        }
      ],
      "name": "todoAdded",
      "type": "event"
    },
    {
      "anonymous": false,
      "inputs": [
        {
          "indexed": false,
          "name": "index",
          "type": "uint256"
        }
      ],
      "name": "todoCompleted",
      "type": "event"
    },
    {
      "constant": false,
      "inputs": [
        {
          "name": "task",
          "type": "bytes32"
        }
      ],
      "name": "addPriorityTodo",
      "outputs": [],
      "payable": true,
      "stateMutability": "payable",
      "type": "function"
    },
    {
      "constant": false,
      "inputs": [
        {
          "name": "task",
          "type": "bytes32"
        }
      ],
      "name": "addTodo",
      "outputs": [],
      "payable": false,
      "stateMutability": "nonpayable",
      "type": "function"
    },
    {
      "constant": true,
      "inputs": [],
      "name": "getTodos",
      "outputs": [
        {
          "name": "",
          "type": "bytes32[]"
        }
      ],
      "payable": false,
      "stateMutability": "view",
      "type": "function"
    },
    {
      "constant": true,
      "inputs": [
        {
          "name": "index",
          "type": "uint256"
        }
      ],
      "name": "getTodo",
      "outputs": [
        {
          "name": "",
          "type": "bytes32"
        },
        {
          "name": "",
          "type": "address"
        },
        {
          "name": "",
          "type": "bool"
        },
        {
          "name": "",
          "type": "address"
        },
        {
          "name": "",
          "type": "uint256"
        },
        {
          "name": "",
          "type": "uint256"
        }
      ],
      "payable": false,
      "stateMutability": "view",
      "type": "function"
    },
    {
      "constant": false,
      "inputs": [
        {
          "name": "index",
          "type": "uint256"
        }
      ],
      "name": "completeTodo",
      "outputs": [],
      "payable": false,
      "stateMutability": "nonpayable",
      "type": "function"
    }
  ],
  "bytecode": "0x6060604052341561000f57600080fd5b336000806101000a81548173ffffffffffffffffffffffffffffffffffffffff021916908373ffffffffffffffffffffffffffffffffffffffff160217905550610b4f8061005e6000396000f30060606040526004361061006d576000357c0100000000000000000000000000000000000000000000000000000000900463ffffffff16806320fe2144146100725780639f2bd85814610095578063c33926cb146100b1578063da2f64601461011b578063dd68afb614610142575b600080fd5b341561007d57600080fd5b6100936004808035906020019091905050610200565b005b6100af6004808035600019169060200190919050506102f6565b005b34156100bc57600080fd5b6100c46104fc565b6040518080602001828103825283818151815260200191508051906020019060200280838360005b838110156101075780820151818401526020810190506100ec565b505050509050019250505060405180910390f35b341561012657600080fd5b610140600480803560001916906020019091905050610660565b005b341561014d57600080fd5b6101636004808035906020019091905050610858565b6040518087600019166000191681526020018673ffffffffffffffffffffffffffffffffffffffff1673ffffffffffffffffffffffffffffffffffffffff168152602001851515151581526020018473ffffffffffffffffffffffffffffffffffffffff1673ffffffffffffffffffffffffffffffffffffffff168152602001838152602001828152602001965050505050505060405180910390f35b6001808281548110151561021057fe5b906000526020600020906005020160020160006101000a81548160ff0219169083151502179055503360018281548110151561024857fe5b906000526020600020906005020160020160016101000a81548173ffffffffffffffffffffffffffffffffffffffff021916908373ffffffffffffffffffffffffffffffffffffffff160217905550426001828154811015156102a757fe5b9060005260206000209060050201600301819055507ffe1c7f6fc4e8cdc1434cc27b86cb7d367c46cc1e8c009dbe6d6b773f354b7f34816040518082815260200191505060405180910390a150565b6102fe6109dc565b605060018054905010151561031257600080fd5b60003411151561032157600080fd5b60c0604051908101604052803373ffffffffffffffffffffffffffffffffffffffff16815260200183600019168152602001600015158152602001600073ffffffffffffffffffffffffffffffffffffffff168152602001600081526020013481525090506001805480600101828161039a9190610a44565b9160005260206000209060050201600083909190915060008201518160000160006101000a81548173ffffffffffffffffffffffffffffffffffffffff021916908373ffffffffffffffffffffffffffffffffffffffff1602179055506020820151816001019060001916905560408201518160020160006101000a81548160ff02191690831515021790555060608201518160020160016101000a81548173ffffffffffffffffffffffffffffffffffffffff021916908373ffffffffffffffffffffffffffffffffffffffff1602179055506080820151816003015560a082015181600401555050507fc1c98e7556d97df6bc0a54f6d4242d2558f10643ec1ad9e42e4cbafc0345ae6b3383604051808373ffffffffffffffffffffffffffffffffffffffff1673ffffffffffffffffffffffffffffffffffffffff16815260200182600019166000191681526020019250505060405180910390a15050565b610504610a76565b600061050e610a76565b600080925060506040518059106105225750595b90808252806020026020018201604052509150600090505b60018054905081101561065757600060018281548110151561055857fe5b906000526020600020906005020160040154111561060257818381518110151561057e57fe5b90602001906020020151828281518110151561059657fe5b9060200190602002019060001916908160001916815250506001818154811015156105bd57fe5b90600052602060002090600502016001015482848151811015156105dd57fe5b906020019060200201906000191690816000191681525050828060010193505061064a565b60018181548110151561061157fe5b906000526020600020906005020160010154828281518110151561063157fe5b9060200190602002019060001916908160001916815250505b808060010191505061053a565b81935050505090565b6106686109dc565b605060018054905010151561067c57600080fd5b60c0604051908101604052803373ffffffffffffffffffffffffffffffffffffffff16815260200183600019168152602001600015158152602001600073ffffffffffffffffffffffffffffffffffffffff1681526020016000815260200160008152509050600180548060010182816106f69190610a44565b9160005260206000209060050201600083909190915060008201518160000160006101000a81548173ffffffffffffffffffffffffffffffffffffffff021916908373ffffffffffffffffffffffffffffffffffffffff1602179055506020820151816001019060001916905560408201518160020160006101000a81548160ff02191690831515021790555060608201518160020160016101000a81548173ffffffffffffffffffffffffffffffffffffffff021916908373ffffffffffffffffffffffffffffffffffffffff1602179055506080820151816003015560a082015181600401555050507fc1c98e7556d97df6bc0a54f6d4242d2558f10643ec1ad9e42e4cbafc0345ae6b3383604051808373ffffffffffffffffffffffffffffffffffffffff1673ffffffffffffffffffffffffffffffffffffffff16815260200182600019166000191681526020019250505060405180910390a15050565b6000806000806000806108696109dc565b60018881548110151561087857fe5b906000526020600020906005020160c060405190810160405290816000820160009054906101000a900473ffffffffffffffffffffffffffffffffffffffff1673ffffffffffffffffffffffffffffffffffffffff1673ffffffffffffffffffffffffffffffffffffffff1681526020016001820154600019166000191681526020016002820160009054906101000a900460ff161515151581526020016002820160019054906101000a900473ffffffffffffffffffffffffffffffffffffffff1673ffffffffffffffffffffffffffffffffffffffff1673ffffffffffffffffffffffffffffffffffffffff1681526020016003820154815260200160048201548152505090506000816000015173ffffffffffffffffffffffffffffffffffffffff16141515156109a857fe5b806020015181600001518260400151836060015184608001518560a001519650965096509650965096505091939550919395565b60c060405190810160405280600073ffffffffffffffffffffffffffffffffffffffff16815260200160008019168152602001600015158152602001600073ffffffffffffffffffffffffffffffffffffffff16815260200160008152602001600081525090565b815481835581811511610a7157600502816005028360005260206000209182019101610a709190610a8a565b5b505050565b602060405190810160405280600081525090565b610b2091905b80821115610b1c57600080820160006101000a81549073ffffffffffffffffffffffffffffffffffffffff021916905560018201600090556002820160006101000a81549060ff02191690556002820160016101000a81549073ffffffffffffffffffffffffffffffffffffffff02191690556003820160009055600482016000905550600501610a90565b5090565b905600a165627a7a72305820a4188991b78101ea58d02fa766dafeb810954269852b2aec82d8ad534ab8fbfa0029",
  "source": "pragma solidity ^0.4.19;\r\ncontract TodoApp {\r\n    struct Todo {\r\n       address owner;\r\n       bytes32 task;\r\n       bool completed;\r\n       address completed_by;\r\n       uint completed_at;\r\n       uint priority;\r\n    }\r\n    address owner;\r\n    Todo[] tasks;\r\n    \r\n    modifier isOwner { require(msg.sender == owner); _; }\r\n    \r\n    event todoAdded(address owner, bytes32 task);\r\n    event todoCompleted(uint index);\r\n\r\n    function TodoApp() public {\r\n        owner = msg.sender;\r\n    }\r\n    function addPriorityTodo(bytes32 task) public payable {\r\n        require(tasks.length < 80);\r\n        require(msg.value > 0);\r\n        Todo memory todo = Todo(msg.sender, task, false, 0, 0, msg.value);\r\n        tasks.push(todo);\r\n        todoAdded(msg.sender,task);\r\n    }\r\n    function addTodo(bytes32 task) public {\r\n        require(tasks.length < 80);\r\n        Todo memory todo = Todo(msg.sender, task, false, 0, 0, 0);\r\n        tasks.push(todo);\r\n        todoAdded(msg.sender,task);\r\n    }\r\n    \r\n    function getTodos() public constant returns (bytes32[]){\r\n        uint j = 0;\r\n        bytes32[] memory tasksTemp = new bytes32[](80); //in memory array needs to have length\r\n        //assuming in the application we have maximum of 80 todos\r\n        for (uint i = 0; i < tasks.length; i++) {\r\n            if(tasks[i].priority > 0){\r\n                //here we are simply priority tasks on top. \r\n                //this can be done better because right now even if a person paid for ETH\r\n                //his task might not be at top. but this is fine for demo puporse. \r\n                tasksTemp[i] = tasksTemp[j];\r\n                tasksTemp[j] = tasks[i].task;\r\n                j++;\r\n            }else{\r\n                tasksTemp[i] = tasks[i].task; //push doesn't work for memory array\r\n            }\r\n        }\r\n        return tasksTemp;\r\n    }\r\n    \r\n    function getTodo(uint index) public constant returns (bytes32,address,bool,address,uint,uint){\r\n        Todo memory todo = tasks[index];\r\n        assert(todo.owner != 0);\r\n        return (todo.task, todo.owner, todo.completed, todo.completed_by, todo.completed_at, todo.priority);\r\n    } \r\n    function completeTodo(uint index) public {\r\n        tasks[index].completed = true;\r\n        tasks[index].completed_by = msg.sender;\r\n        tasks[index].completed_at = now;\r\n        todoCompleted(index);\r\n    }\r\n}",
  "sourcePath": "C:\\Users\\etech\\Desktop\\web3js\\webpack\\contracts\\TodoApp.sol",
  "compiler": {
    "name": "solc",
    "version": "0.4.19+commit.c4cbbb05.Emscripten.clang"
  },
  "schemaVersion": "2.0.0",
  "updatedAt": "2018-03-26T12:18:17.246Z"
}