{
  "contractName": "TodoApp",
  "abi": [
    {
      "inputs": [],
      "payable": false,
      "stateMutability": "nonpayable",
      "type": "constructor"
    },
    {
      "anonymous": false,
      "inputs": [
        {
          "indexed": false,
          "name": "owner",
          "type": "address"
        },
        {
          "indexed": false,
          "name": "task",
          "type": "bytes32"
        }
      ],
      "name": "todoAdded",
      "type": "event"
    },
    {
      "anonymous": false,
      "inputs": [
        {
          "indexed": false,
          "name": "index",
          "type": "uint256"
        }
      ],
      "name": "todoCompleted",
      "type": "event"
    },
    {
      "constant": false,
      "inputs": [
        {
          "name": "task",
          "type": "bytes32"
        }
      ],
      "name": "addTodo",
      "outputs": [],
      "payable": false,
      "stateMutability": "nonpayable",
      "type": "function"
    },
    {
      "constant": true,
      "inputs": [],
      "name": "getTodos",
      "outputs": [
        {
          "name": "",
          "type": "bytes32[]"
        }
      ],
      "payable": false,
      "stateMutability": "view",
      "type": "function"
    },
    {
      "constant": true,
      "inputs": [
        {
          "name": "index",
          "type": "uint256"
        }
      ],
      "name": "getTodo",
      "outputs": [
        {
          "name": "",
          "type": "bytes32"
        },
        {
          "name": "",
          "type": "address"
        },
        {
          "name": "",
          "type": "bool"
        },
        {
          "name": "",
          "type": "address"
        },
        {
          "name": "",
          "type": "uint256"
        }
      ],
      "payable": false,
      "stateMutability": "view",
      "type": "function"
    },
    {
      "constant": false,
      "inputs": [
        {
          "name": "index",
          "type": "uint256"
        }
      ],
      "name": "completeTodo",
      "outputs": [],
      "payable": false,
      "stateMutability": "nonpayable",
      "type": "function"
    }
  ],
  "bytecode": "0x6060604052341561000f57600080fd5b336000806101000a81548173ffffffffffffffffffffffffffffffffffffffff021916908373ffffffffffffffffffffffffffffffffffffffff1602179055506108278061005e6000396000f300606060405260043610610062576000357c0100000000000000000000000000000000000000000000000000000000900463ffffffff16806320fe214414610067578063c33926cb1461008a578063da2f6460146100f4578063dd68afb61461011b575b600080fd5b341561007257600080fd5b61008860048080359060200190919050506101d2565b005b341561009557600080fd5b61009d6102c8565b6040518080602001828103825283818151815260200191508051906020019060200280838360005b838110156100e05780820151818401526020810190506100c5565b505050509050019250505060405180910390f35b34156100ff57600080fd5b61011960048080356000191690602001909190505061036a565b005b341561012657600080fd5b61013c6004808035906020019091905050610551565b6040518086600019166000191681526020018573ffffffffffffffffffffffffffffffffffffffff1673ffffffffffffffffffffffffffffffffffffffff168152602001841515151581526020018373ffffffffffffffffffffffffffffffffffffffff1673ffffffffffffffffffffffffffffffffffffffff1681526020018281526020019550505050505060405180910390f35b600180828154811015156101e257fe5b906000526020600020906004020160020160006101000a81548160ff0219169083151502179055503360018281548110151561021a57fe5b906000526020600020906004020160020160016101000a81548173ffffffffffffffffffffffffffffffffffffffff021916908373ffffffffffffffffffffffffffffffffffffffff1602179055504260018281548110151561027957fe5b9060005260206000209060040201600301819055507ffe1c7f6fc4e8cdc1434cc27b86cb7d367c46cc1e8c009dbe6d6b773f354b7f34816040518082815260200191505060405180910390a150565b6102d06106c3565b6102d86106c3565b600060506040518059106102e95750595b90808252806020026020018201604052509150600090505b6001805490508110156103625760018181548110151561031d57fe5b906000526020600020906004020160010154828281518110151561033d57fe5b9060200190602002019060001916908160001916815250508080600101915050610301565b819250505090565b6103726106d7565b605060018054905010151561038657600080fd5b60a0604051908101604052803373ffffffffffffffffffffffffffffffffffffffff16815260200183600019168152602001600015158152602001600073ffffffffffffffffffffffffffffffffffffffff16815260200160008152509050600180548060010182816103f99190610738565b9160005260206000209060040201600083909190915060008201518160000160006101000a81548173ffffffffffffffffffffffffffffffffffffffff021916908373ffffffffffffffffffffffffffffffffffffffff1602179055506020820151816001019060001916905560408201518160020160006101000a81548160ff02191690831515021790555060608201518160020160016101000a81548173ffffffffffffffffffffffffffffffffffffffff021916908373ffffffffffffffffffffffffffffffffffffffff160217905550608082015181600301555050507fc1c98e7556d97df6bc0a54f6d4242d2558f10643ec1ad9e42e4cbafc0345ae6b3383604051808373ffffffffffffffffffffffffffffffffffffffff1673ffffffffffffffffffffffffffffffffffffffff16815260200182600019166000191681526020019250505060405180910390a15050565b60008060008060006105616106d7565b60018781548110151561057057fe5b906000526020600020906004020160a060405190810160405290816000820160009054906101000a900473ffffffffffffffffffffffffffffffffffffffff1673ffffffffffffffffffffffffffffffffffffffff1673ffffffffffffffffffffffffffffffffffffffff1681526020016001820154600019166000191681526020016002820160009054906101000a900460ff161515151581526020016002820160019054906101000a900473ffffffffffffffffffffffffffffffffffffffff1673ffffffffffffffffffffffffffffffffffffffff1673ffffffffffffffffffffffffffffffffffffffff16815260200160038201548152505090506000816000015173ffffffffffffffffffffffffffffffffffffffff161415151561069657fe5b80602001518160000151826040015183606001518460800151955095509550955095505091939590929450565b602060405190810160405280600081525090565b60a060405190810160405280600073ffffffffffffffffffffffffffffffffffffffff16815260200160008019168152602001600015158152602001600073ffffffffffffffffffffffffffffffffffffffff168152602001600081525090565b81548183558181151161076557600402816004028360005260206000209182019101610764919061076a565b5b505050565b6107f891905b808211156107f457600080820160006101000a81549073ffffffffffffffffffffffffffffffffffffffff021916905560018201600090556002820160006101000a81549060ff02191690556002820160016101000a81549073ffffffffffffffffffffffffffffffffffffffff0219169055600382016000905550600401610770565b5090565b905600a165627a7a72305820ff54b42a3f8d99fafef8158df4951ada8878b3694fd8bab49928673cfec971590029",
  "source": "pragma solidity ^0.4.17;\r\ncontract TodoApp {\r\n    struct Todo {\r\n       address owner;\r\n       bytes32 task;\r\n       bool completed;\r\n       address completed_by;\r\n       uint completed_at;\r\n    }\r\n    address owner;\r\n    Todo[] tasks;\r\n    \r\n    modifier isOwner { require(msg.sender == owner); _; }\r\n    \r\n    event todoAdded(address owner, bytes32 task);\r\n    event todoCompleted(uint index);\r\n\r\n    function TodoApp() public {\r\n        owner = msg.sender;\r\n    }\r\n    function addTodo(bytes32 task) public {\r\n        require(tasks.length < 80);\r\n        Todo memory todo = Todo(msg.sender, task, false, 0, 0);\r\n        tasks.push(todo);\r\n        todoAdded(msg.sender,task);\r\n    }\r\n    \r\n    function getTodos() public constant returns (bytes32[]){\r\n        bytes32[] memory tasksTemp = new bytes32[](80); //in memory array needs to have length\r\n        //assuming in the application we have maximum of 80 todos\r\n        for (uint i = 0; i < tasks.length; i++) {\r\n            tasksTemp[i] = tasks[i].task; //push doesn't work for memory array\r\n        }\r\n        return tasksTemp;\r\n    }\r\n    \r\n    function getTodo(uint index) public constant returns (bytes32,address,bool,address,uint){\r\n        Todo memory todo = tasks[index];\r\n        assert(todo.owner != 0);\r\n        return (todo.task, todo.owner, todo.completed, todo.completed_by, todo.completed_at);\r\n    } \r\n    function completeTodo(uint index) public {\r\n        tasks[index].completed = true;\r\n        tasks[index].completed_by = msg.sender;\r\n        tasks[index].completed_at = now;\r\n        todoCompleted(index);\r\n    }\r\n}",
  "sourcePath": "C:\\Users\\etech\\Desktop\\web3js\\webpack\\contracts\\TodoApp.sol",
  "compiler": {
    "name": "solc",
    "version": "0.4.19+commit.c4cbbb05.Emscripten.clang"
  },
  "schemaVersion": "2.0.0",
  "updatedAt": "2018-03-26T09:30:02.751Z"
}